:100000000C9446000C9465000C9465000C946500FB
:100010000C9465000C9465000C9465000C946500CC
:100020000C9465000C9465000C9465000C946500BC
:100030000C9465000C94A3000C9465000C9465006E
:100040000C9465000C9465000C9465000C9465009C
:100050000C9465000C9465000C9465000C9465008C
:100060000C9465000C9465000C9465000C9465007C
:100070000C9465000C9465000C9465000C9465006C
:100080000C9465000C9465000C94650011241FBE4F
:10009000CFEFD0E4DEBFCDBF11E0A0E0B1E0E2EFF2
:1000A000F3E000E00BBF02C007900D92A231B10750
:1000B000D9F721E0A2E1B1E001C01D92A132B2075F
:1000C000E1F70E94DF010C94F7010C940000CF933C
:1000D000C82F8A3019F48DE00E9467008091C0001B
:1000E00085FFFCCFC093C60080E090E0CF910895DB
:1000F0008BE0809381008DE790E09093890080935E
:10010000880082E080936F00109285001092840036
:100110008091000190910101A0910201B091030131
:100120008093160190931701A0931801B0931901C1
:100130008FB780688FBF089510928100089581E085
:1001400080931A0108951F920F920FB60F921124F7
:100150000BB60F922F933F934F935F936F937F93C1
:100160008F939F93AF93BF93EF93FF93809116016B
:1001700090911701A0911801B09119010197A1095F
:10018000B1098093160190931701A0931801B093C1
:100190001901892B8A2B8B2B91F40E949F0080914F
:1001A000000190910101A0910201B091030180939F
:1001B000160190931701A0931801B0931901FF91B4
:1001C000EF91BF91AF919F918F917F916F915F91CF
:1001D0004F913F912F910F900BBE0F900FBE0F903C
:1001E0001F901895609300017093010180930201A4
:1001F0009093030160931601709317018093180187
:1002000090931901089580911F01909120018130F0
:10021000910581F030F082309105F1F0039771F192
:100220003FC01092130181E090E0909320018093F1
:100230001F013AC0809113018E3140F010921301DA
:1002400082E090E09093200180931F018091130140
:100250008F5F8093130128C0809113018E3140F08D
:100260001092130183E090E09093200180931F018E
:10027000809113018F5F8093130116C08091130149
:100280008E3140F01092130181E090E090932001B4
:1002900080931F01809113018F5F8093130104C02D
:1002A0001092200110921F0180911F019091200156
:1002B0008230910549F08330910551F0019759F44E
:1002C00081E080931501089582E0809315010895DF
:1002D00084E080931501089580911B0190911C0189
:1002E0008130910569F018F00297E1F02DC010926D
:1002F000120181E090E090931C0180931B0128C0C3
:1003000080911201843640F01092120182E090E058
:1003100090931C0180931B01809112018F5F809349
:10032000120116C080911201843640F01092120121
:1003300081E090E090931C0180931B018091120159
:100340008F5F8093120104C010921C0110921B0158
:1003500080911B0190911C018130910519F0029749
:1003600029F0089588E080931401089510921401F3
:10037000089580911D0190911E01009719F0019739
:1003800041F00CC081E090E090931E0180931D012C
:1003900009C00E9403010E946C0104C010921E015A
:1003A00010921D0180911D0190911E01019731F461
:1003B0009091150180911401892B85B908958FEFD3
:1003C00084B915B86AE070E080E090E00E94F20025
:1003D0000E9478000E9403010E946C010E94B901F2
:1003E00080911A018823E1F310921A01F3CFF89457
:0203F000FFCF3D
:1003F2000100000000000002000000006700000091
:020402000000F8
:00000001FF
